:020000040000FA
:100000000A128A11FC2F00308A000408840A820731
:100010000034543445344D34503445345234413432
:100020005434553452344134203433343034203451
:1000300020340034433448344F344334413444345E
:1000400045344934523441342034523445345634E2
:060050002E3431340034AF
:100CD6000A128A11792683160313111408000A12C0
:100CE6008A11792683160313111508008316031338
:100CF6001419792E11081F3903190800792EF000EE
:100D06000A128A11792670088312031393000800C9
:100D1600F700770884000A128A1103200A128A1142
:100D2600003A03190800770884000A128A11032082
:100D36000A128A110A128A115F270A128A110130D1
:100D4600F6007608F7078C2E01300A128A11202742
:100D56000A128A1102300A128A1120270A128A11EF
:100D660028300A128A1120270A128A110C300A1218
:100D76008A1120270A128A1180300A128A11202726
:100D86000800003083120313A3000130A20086304E
:100D9600A100A030A0000A128A11EB260A128A11BD
:100DA6000A128A11A7260A128A1112300A128A1109
:100DB6008B260A128A11C0300A128A1120270A12BB
:100DC6008A1101300A128A118B260A128A11D82E2C
:100DD600831203132008A4002108A5002208A600F8
:100DE6002308A70002300310A40DA50DA60DA70D1C
:100DF600FF3E031DF62E2708F3002608F2002508FD
:100E0600F1002408F0000030F7003D30F60009300C
:100E1600F5000030F4000A128A119E277008FF3E82
:100E2600831603139300283083120313940083164A
:100E360003139401871507160800F3007308F100E1
:100E460003300310F10DFF3E031D242F0310710D17
:100E5600F039F2007208F4007308F039F1007108F5
:100E6600F5000A128A116B260A128A114E300A12EE
:100E76008A1182260A128A1175080C380A128A11FA
:100E860082260A128A11750808380A128A118226E1
:100E96000A128A1174080C380A128A1182260A125A
:100EA6008A11740808380A128A1182260A128A11CF
:100EB6000A128A1172260800F3007308F100033043
:100EC6000310F10DFF3E031D632F0310710DF03962
:100ED600F2007208F4007308F039F1007108F500A9
:100EE6000A128A116B260A128A114E300A128A11C8
:100EF60082260A128A1175080D380A128A1182266C
:100F06000A128A11750809380A128A1182260A12EB
:100F16008A1174080D380A128A1182260A128A1159
:100F2600740809380A128A1182260A128A110A12CC
:100F36008A11722608000030FC000030FB000030E9
:100F4600FA000030F9007308720471047004031982
:100F5600F32FFD01FD0AF31BBE2F0130F80003102D
:100F6600F00DF10DF20DF30DF80BB22F0130F80074
:100F76007808FD07AE2F0130F8000310F90DFA0DC1
:100F8600FB0DFC0DF80BC02F73087702031DD52F40
:100F960072087602031DD52F71087502031DD52F21
:100FA60070087402031CE62F7008F4027108031C13
:100FB600710FF5027208031C720FF6027308031C08
:100FC600730FF702791401300310F30CF20CF10CD5
:100FD600F00CFF3E031DE72F0130FD02031DBE2F5F
:100FE6007C08F3007B08F2007A08F1007908F0002B
:0A0FF600080083010A128A11C42EBC
:04400E00F4ECFFFFD0
:00000001FF
